:020000020000FC
:040000000C94360026
:100040000C9462040FEF0DBF18E01EBF7D483E6E9A
:100050004B67774C7F4F7D483E6E4B677D007D48F8
:100060003E6E4B67774C7F4F7D483E00419A3998F2
:10007000429A3A98439A3B98449A3C98459A3D98BC
:10008000509A5898519A5998529A5A98539A5B98FC
:10009000549A5C98559A5D98569A5E98579A5F98CC
:1000A000389A4098259A2D98549A5C98509A589866
:1000B000519A5998529A5A98539A5B98992488243D
:1000C00077246624AA24BB2450E060E070E080E03E
:1000D00009E0002E05E0102E09E0202E02E0302E6F
:1000E0000E945A047894319BB2C301E008B900E041
:1000F00005B900E80BB9B92DB82DB72D01E005B948
:10010000F0E0ECE4EB0FF490FBB8002703950F3F11
:10011000E9F7B62D02E005B9F0E0E6E5EB0FE49073
:10012000EBB8002703950F3FE9F7BA2D04E005B9B6
:10013000F0E0EEE5EB0FD490DBB8002703950F3F1E
:10014000E9F7BB2D08E005B9F0E0E8E6EB0FC49055
:10015000CBB8002703950F3FE9F7A23321F6AA2772
:10016000319B75C301E008B900E005B900E00BB9A7
:10017000B92DB82DB72D01E005B9F0E0ECE4EB0F97
:10018000F490FBB8002703950F3FE9F7B62D02E086
:1001900005B9F0E0E6E5EB0FE490EBB80027039536
:1001A0000F3FE9F7BA2D04E005B9F0E0EEE5EB0FFB
:1001B000D490DBB8002703950F3FE9F7BB2D08E08B
:1001C00005B9F0E0E8E6EB0FC490CBB80027039543
:1001D0000F3FE9F7A23331F6AA27319B38C3939436
:1001E000B92DBA30B8F4B82DB630B8F4B72DBA304E
:1001F000B8F4B62DB630C0F4BA2DBA30C8F4BB2D61
:10020000B330D0F4BB2D12E0B1136DCFBA2DB430A2
:1002100098F469CF9924839466CF8824739463CF2C
:100220007724FF2463945FCF6624EE24A3945BCFEE
:10023000AA24DD24B39457CFAA24BB2466247724B0
:1002400088249924CC2473954ECF9924882400E0E7
:1002500008B900E205B900E00BB9319B07C3329B36
:1002600002C3339B01C0F1CF339BFECF00C0329B52
:10027000FAC2339B2CC0349B0AC0359B18C001E0E6
:1002800005B9F0E0ECE4E70DF490FBB8F0CF0027FF
:1002900000E0071105C009E0702E349BFECFE7CFC8
:1002A0000027072D0A95702E349BFECFE0CF002744
:1002B00009E0071105C000E0702E359BFECFD7CFB7
:1002C0000027072D0395702E359BFECFD0CF339B93
:1002D000FECF00C0329BC7C2339B2CC0349B0AC0E8
:1002E000359B18C002E005B9F0E0ECE4E60DE490BF
:1002F000EBB8F0CF002700E0061105C005E0602E46
:10030000349BFECFE7CF0027062D0A95602E349B45
:10031000FECFE0CF002705E0061105C000E0602E0B
:10032000359BFECFD7CF0027062D0395602E359B3A
:10033000FECFD0CF339BFECF00C0329B94C2339B05
:100340002CC0349B0AC0359B18C004E005B9F0E00E
:10035000ECE4EA0DD490DBB8F0CF002700E00A11FE
:1003600005C009E0A02E349BFECFE7CF00270A2D61
:100370000A95A02E349BFECFE0CF002709E00A119A
:1003800005C000E0A02E359BFECFD7CF00270A2D59
:100390000395A02E359BFECFD0CF339BFECF00C060
:1003A000329B61C2339B60CF349B0AC0359B18C01F
:1003B00008E005B9F0E0ECE4EB0DC490CBB8F0CF69
:1003C000002700E00B1105C002E0B02E349BFECFE9
:1003D000E7CF00270B2D0A95B02E349BFECFE0CF40
:1003E000002702E00B1105C000E0B02E359BFECFC8
:1003F000D7CF00270B2D0395B02E359BFECFD0CF46
:10040000319B37C200E80BB9B52F01E005B9F0E028
:10041000ECE4EB0FF490FBB8002703950F3FE9F7EE
:10042000B62F02E005B9F0E0E6E5EB0FE490EBB89B
:10043000002703950F3FE9F7B72F04E005B9F0E077
:10044000EEE5EB0FD490DBB8002703950F3FE9F7FB
:10045000B82F08E005B9F0E0ECE4EB0FC490CBB89E
:10046000002703950F3FE9F7B72FB93088F4B82F6D
:10047000B33088F4B52FB93088F4B62FB23088F491
:10048000B62F11E0B113BCCFB52FB33050F4B8CFB5
:1004900077278395B5CF88275395B2CF5527639596
:1004A000AFCF01E0502F662777278827A9CF00E03C
:1004B00008B900E005B9319BEBC1A931E1F7AA27E2
:1004C00000E205B9319BE4C1A931E1F7AA279924DB
:1004D0008824319BDDC1329BD8C1339B02C0E7CF5A
:1004E000E6CF339BFECF00C0329BCFC1339B2CC0E5
:1004F000349B0AC0359B18C001E005B9F0E0ECE47C
:10050000E50FF490FBB8F0CF002700E0051305C01D
:1005100009E0502F349BFECFE7CF0027052F0A9527
:10052000502F349BFECFE0CF002709E0051305C014
:1005300000E0502F359BFECFD7CF0027052F039526
:10054000502F359BFECFD0CF339BFECF00C0329BC8
:100550009CC1339B2CC0349B0AC0359B18C002E061
:1005600005B9F0E0ECE4E60FE490EBB8F0CF00273B
:1005700000E0061305C001E0602F349BFECFE7CFFB
:100580000027062F0A95602F349BFECFE0CF00276F
:1005900001E0061305C000E0602F359BFECFD7CFEA
:1005A0000027062F0395602F359BFECFD0CF339BBE
:1005B000FECF00C0329B69C1339B2CC0349B0AC064
:1005C000359B18C004E005B9F0E0ECE4E70FD490E7
:1005D000DBB8F0CF002700E0071305C009E0702F5B
:1005E000349BFECFE7CF0027072F0A95702F349B4F
:1005F000FECFE0CF002709E0071305C000E0702F11
:10060000359BFECFD7CF0027072F0395702F359B43
:10061000FECFD0CF339BFECF00C0329B36C1339B81
:1006200060CF349B0AC0359B18C008E005B9F0E0E4
:10063000ECE4E80FC490CBB8F0CF002700E008133B
:1006400005C002E0802F349BFECFE7CF0027082FA4
:100650000A95802F349BFECFE0CF002702E00813DD
:1006600005C000E0802F359BFECFD7CF0027082F95
:100670000395802F359BFECFD0CF19CF99248824A6
:1006800001E008B900E005B9319B11C1A931E1F7DA
:10069000AA2700E008B900E205B9319B08C1A931D9
:1006A000E1F7AA27319B03C1329BFEC0339B02C0F6
:1006B000E5CFE4CF339BFECF00C0329BF5C0339B28
:1006C0002CC0349B0AC0359B18C001E005B9F0E08E
:1006D000ECE4E00DF490FBB8F0CF002700E000114F
:1006E00005C009E0002E349BFECFE7CF0027002D88
:1006F0000A95002E349BFECFE0CF002709E00011C1
:1007000005C000E0002E359BFECFD7CF0027002D7F
:100710000395002E359BFECFD0CF339BFECF00C07C
:10072000329BC2C0339B2CC0349B0AC0359B18C07F
:1007300002E005B9F0E0ECE4E10DE490EBB8F0CFB5
:10074000002700E0011105C005E0102E349BFECF0C
:10075000E7CF0027012D0A95102E349BFECFE0CF66
:10076000002705E0011105C000E0102E359BFECFEB
:10077000D7CF0027012D0395102E359BFECFD0CF6C
:10078000339BFECF00C0329B8FC0339B2CC0349B69
:100790000AC0359B18C004E005B9F0E0ECE4E20DB6
:1007A000D490DBB8F0CF002700E0021105C009E0CB
:1007B000202E349BFECFE7CF0027022D0A95202E56
:1007C000349BFECFE0CF002709E0021105C000E016
:1007D000202E359BFECFD7CF0027022D0395202E4C
:1007E000359BFECFD0CF339BFECF00C0329B5CC089
:1007F000339B60CF349B0AC0359B18C008E005B915
:10080000F0E0ECE4E30DC490CBB8F0CF002700E0BB
:10081000031105C002E0302E349BFECFE7CF002746
:10082000032D0A95302E349BFECFE0CF002702E047
:10083000031105C000E0302E359BFECFD7CF002737
:10084000032D0395302E359BFECFD0CF17CF319996
:10085000FCCCFDCF3599F9CCFDCF3499F6CCFDCF4A
:100860003399F3CCFDCF32993ECCFDCF3199C8CD31
:10087000FDCF31991CCEFDCF359919CEFDCF3499DE
:1008800016CEFDCF339913CEFDCF3299B9CDFDCF22
:100890003199F4CEFDCF3599F1CEFDCF3499EECE1E
:1008A000FDCF3399EBCEFDCF32991DCCFDCF3199E1
:1008B0001ACCFDCF05E005BD04E606BD01E00093BE
:1008C0006E0008950F930FB70F9304E606BDA89A24
:0A08D000A3950F910FBF0F9118952B
:00000001FF
